{
	"contracts/Solidity Basics III/1_destructuring.sol": {
		"Contract": {
			"abi": [
				{
					"anonymous": false,
					"inputs": [
						{
							"indexed": false,
							"internalType": "uint256",
							"name": "a",
							"type": "uint256"
						},
						{
							"indexed": false,
							"internalType": "bool",
							"name": "b",
							"type": "bool"
						}
					],
					"name": "LogValues",
					"type": "event"
				},
				{
					"inputs": [],
					"name": "destructAssigned",
					"outputs": [],
					"stateMutability": "nonpayable",
					"type": "function"
				},
				{
					"inputs": [],
					"name": "multiOutput",
					"outputs": [
						{
							"internalType": "uint256",
							"name": "",
							"type": "uint256"
						},
						{
							"internalType": "bool",
							"name": "",
							"type": "bool"
						}
					],
					"stateMutability": "pure",
					"type": "function"
				},
				{
					"inputs": [],
					"name": "namedOutput",
					"outputs": [
						{
							"internalType": "uint256",
							"name": "a",
							"type": "uint256"
						},
						{
							"internalType": "bool",
							"name": "b",
							"type": "bool"
						}
					],
					"stateMutability": "pure",
					"type": "function"
				},
				{
					"inputs": [],
					"name": "varAssigned",
					"outputs": [
						{
							"internalType": "uint256",
							"name": "a",
							"type": "uint256"
						},
						{
							"internalType": "bool",
							"name": "b",
							"type": "bool"
						}
					],
					"stateMutability": "pure",
					"type": "function"
				}
			],
			"devdoc": {
				"kind": "dev",
				"methods": {},
				"version": 1
			},
			"evm": {
				"assembly": "    /* \"contracts/Solidity Basics III/1_destructuring.sol\":61:679  contract Contract {... */\n  mstore(0x40, 0x80)\n  callvalue\n  dup1\n  iszero\n  tag_1\n  jumpi\n  0x00\n  dup1\n  revert\ntag_1:\n  pop\n  dataSize(sub_0)\n  dup1\n  dataOffset(sub_0)\n  0x00\n  codecopy\n  0x00\n  return\nstop\n\nsub_0: assembly {\n        /* \"contracts/Solidity Basics III/1_destructuring.sol\":61:679  contract Contract {... */\n      mstore(0x40, 0x80)\n      callvalue\n      dup1\n      iszero\n      tag_1\n      jumpi\n      0x00\n      dup1\n      revert\n    tag_1:\n      pop\n      jumpi(tag_2, lt(calldatasize, 0x04))\n      shr(0xe0, calldataload(0x00))\n      dup1\n      0x29adb489\n      eq\n      tag_3\n      jumpi\n      dup1\n      0x5e632bd5\n      eq\n      tag_4\n      jumpi\n      dup1\n      0xcb245485\n      eq\n      tag_5\n      jumpi\n      dup1\n      0xf86c14b1\n      eq\n      tag_6\n      jumpi\n    tag_2:\n      0x00\n      dup1\n      revert\n        /* \"contracts/Solidity Basics III/1_destructuring.sol\":406:593  function destructAssigned() public {... */\n    tag_3:\n      tag_7\n      tag_8\n      jump\t// in\n    tag_7:\n      stop\n        /* \"contracts/Solidity Basics III/1_destructuring.sol\":192:287  function namedOutput() public pure returns (uint a, bool b) {... */\n    tag_4:\n      tag_9\n      tag_10\n      jump\t// in\n    tag_9:\n      mload(0x40)\n      tag_11\n      swap3\n      swap2\n      swap1\n      tag_12\n      jump\t// in\n    tag_11:\n      mload(0x40)\n      dup1\n      swap2\n      sub\n      swap1\n      return\n        /* \"contracts/Solidity Basics III/1_destructuring.sol\":93:184  function multiOutput() public pure returns (uint, bool) {... */\n    tag_5:\n      tag_13\n      tag_14\n      jump\t// in\n    tag_13:\n      mload(0x40)\n      tag_15\n      swap3\n      swap2\n      swap1\n      tag_12\n      jump\t// in\n    tag_15:\n      mload(0x40)\n      dup1\n      swap2\n      sub\n      swap1\n      return\n        /* \"contracts/Solidity Basics III/1_destructuring.sol\":295:398  function varAssigned() public pure returns (uint a, bool b) {... */\n    tag_6:\n      tag_16\n      tag_17\n      jump\t// in\n    tag_16:\n      mload(0x40)\n      tag_18\n      swap3\n      swap2\n      swap1\n      tag_12\n      jump\t// in\n    tag_18:\n      mload(0x40)\n      dup1\n      swap2\n      sub\n      swap1\n      return\n        /* \"contracts/Solidity Basics III/1_destructuring.sol\":406:593  function destructAssigned() public {... */\n    tag_8:\n        /* \"contracts/Solidity Basics III/1_destructuring.sol\":453:459  uint a */\n      0x00\n        /* \"contracts/Solidity Basics III/1_destructuring.sol\":461:467  bool b */\n      dup1\n        /* \"contracts/Solidity Basics III/1_destructuring.sol\":471:484  multiOutput() */\n      tag_20\n        /* \"contracts/Solidity Basics III/1_destructuring.sol\":471:482  multiOutput */\n      tag_14\n        /* \"contracts/Solidity Basics III/1_destructuring.sol\":471:484  multiOutput() */\n      jump\t// in\n    tag_20:\n        /* \"contracts/Solidity Basics III/1_destructuring.sol\":452:484  (uint a, bool b) = multiOutput() */\n      swap2\n      pop\n      swap2\n      pop\n        /* \"contracts/Solidity Basics III/1_destructuring.sol\":503:516  multiOutput() */\n      tag_21\n        /* \"contracts/Solidity Basics III/1_destructuring.sol\":503:514  multiOutput */\n      tag_14\n        /* \"contracts/Solidity Basics III/1_destructuring.sol\":503:516  multiOutput() */\n      jump\t// in\n    tag_21:\n        /* \"contracts/Solidity Basics III/1_destructuring.sol\":495:516  (, b) = multiOutput() */\n      swap1\n      pop\n      dup1\n      swap2\n      pop\n      pop\n        /* \"contracts/Solidity Basics III/1_destructuring.sol\":570:585  LogValues(a, b) */\n      0x32cc6cca7c3517608ce4220326509fbff25fb443a095e790f5e9a1598c0b69b4\n        /* \"contracts/Solidity Basics III/1_destructuring.sol\":580:581  a */\n      dup3\n        /* \"contracts/Solidity Basics III/1_destructuring.sol\":583:584  b */\n      dup3\n        /* \"contracts/Solidity Basics III/1_destructuring.sol\":570:585  LogValues(a, b) */\n      mload(0x40)\n      tag_22\n      swap3\n      swap2\n      swap1\n      tag_12\n      jump\t// in\n    tag_22:\n      mload(0x40)\n      dup1\n      swap2\n      sub\n      swap1\n      log1\n        /* \"contracts/Solidity Basics III/1_destructuring.sol\":441:593  {... */\n      pop\n      pop\n        /* \"contracts/Solidity Basics III/1_destructuring.sol\":406:593  function destructAssigned() public {... */\n      jump\t// out\n        /* \"contracts/Solidity Basics III/1_destructuring.sol\":192:287  function namedOutput() public pure returns (uint a, bool b) {... */\n    tag_10:\n        /* \"contracts/Solidity Basics III/1_destructuring.sol\":236:242  uint a */\n      0x00\n        /* \"contracts/Solidity Basics III/1_destructuring.sol\":244:250  bool b */\n      dup1\n        /* \"contracts/Solidity Basics III/1_destructuring.sol\":271:272  1 */\n      0x01\n        /* \"contracts/Solidity Basics III/1_destructuring.sol\":274:278  true */\n      dup1\n        /* \"contracts/Solidity Basics III/1_destructuring.sol\":263:279  return (1, true) */\n      swap2\n      pop\n      swap2\n      pop\n        /* \"contracts/Solidity Basics III/1_destructuring.sol\":192:287  function namedOutput() public pure returns (uint a, bool b) {... */\n      swap1\n      swap2\n      jump\t// out\n        /* \"contracts/Solidity Basics III/1_destructuring.sol\":93:184  function multiOutput() public pure returns (uint, bool) {... */\n    tag_14:\n        /* \"contracts/Solidity Basics III/1_destructuring.sol\":137:141  uint */\n      0x00\n        /* \"contracts/Solidity Basics III/1_destructuring.sol\":143:147  bool */\n      dup1\n        /* \"contracts/Solidity Basics III/1_destructuring.sol\":168:169  2 */\n      0x02\n        /* \"contracts/Solidity Basics III/1_destructuring.sol\":171:175  true */\n      0x01\n        /* \"contracts/Solidity Basics III/1_destructuring.sol\":160:176  return (2, true) */\n      swap2\n      pop\n      swap2\n      pop\n        /* \"contracts/Solidity Basics III/1_destructuring.sol\":93:184  function multiOutput() public pure returns (uint, bool) {... */\n      swap1\n      swap2\n      jump\t// out\n        /* \"contracts/Solidity Basics III/1_destructuring.sol\":295:398  function varAssigned() public pure returns (uint a, bool b) {... */\n    tag_17:\n        /* \"contracts/Solidity Basics III/1_destructuring.sol\":339:345  uint a */\n      0x00\n        /* \"contracts/Solidity Basics III/1_destructuring.sol\":347:353  bool b */\n      dup1\n        /* \"contracts/Solidity Basics III/1_destructuring.sol\":370:371  1 */\n      0x01\n        /* \"contracts/Solidity Basics III/1_destructuring.sol\":366:371  a = 1 */\n      swap2\n      pop\n        /* \"contracts/Solidity Basics III/1_destructuring.sol\":386:390  true */\n      0x01\n        /* \"contracts/Solidity Basics III/1_destructuring.sol\":382:390  b = true */\n      swap1\n      pop\n        /* \"contracts/Solidity Basics III/1_destructuring.sol\":295:398  function varAssigned() public pure returns (uint a, bool b) {... */\n      swap1\n      swap2\n      jump\t// out\n        /* \"#utility.yul\":7:84   */\n    tag_26:\n        /* \"#utility.yul\":44:51   */\n      0x00\n        /* \"#utility.yul\":73:78   */\n      dup2\n        /* \"#utility.yul\":62:78   */\n      swap1\n      pop\n        /* \"#utility.yul\":7:84   */\n      swap2\n      swap1\n      pop\n      jump\t// out\n        /* \"#utility.yul\":90:208   */\n    tag_27:\n        /* \"#utility.yul\":177:201   */\n      tag_33\n        /* \"#utility.yul\":195:200   */\n      dup2\n        /* \"#utility.yul\":177:201   */\n      tag_26\n      jump\t// in\n    tag_33:\n        /* \"#utility.yul\":172:175   */\n      dup3\n        /* \"#utility.yul\":165:202   */\n      mstore\n        /* \"#utility.yul\":90:208   */\n      pop\n      pop\n      jump\t// out\n        /* \"#utility.yul\":214:304   */\n    tag_28:\n        /* \"#utility.yul\":248:255   */\n      0x00\n        /* \"#utility.yul\":291:296   */\n      dup2\n        /* \"#utility.yul\":284:297   */\n      iszero\n        /* \"#utility.yul\":277:298   */\n      iszero\n        /* \"#utility.yul\":266:298   */\n      swap1\n      pop\n        /* \"#utility.yul\":214:304   */\n      swap2\n      swap1\n      pop\n      jump\t// out\n        /* \"#utility.yul\":310:419   */\n    tag_29:\n        /* \"#utility.yul\":391:412   */\n      tag_36\n        /* \"#utility.yul\":406:411   */\n      dup2\n        /* \"#utility.yul\":391:412   */\n      tag_28\n      jump\t// in\n    tag_36:\n        /* \"#utility.yul\":386:389   */\n      dup3\n        /* \"#utility.yul\":379:413   */\n      mstore\n        /* \"#utility.yul\":310:419   */\n      pop\n      pop\n      jump\t// out\n        /* \"#utility.yul\":425:745   */\n    tag_12:\n        /* \"#utility.yul\":540:544   */\n      0x00\n        /* \"#utility.yul\":578:580   */\n      0x40\n        /* \"#utility.yul\":567:576   */\n      dup3\n        /* \"#utility.yul\":563:581   */\n      add\n        /* \"#utility.yul\":555:581   */\n      swap1\n      pop\n        /* \"#utility.yul\":591:662   */\n      tag_38\n        /* \"#utility.yul\":659:660   */\n      0x00\n        /* \"#utility.yul\":648:657   */\n      dup4\n        /* \"#utility.yul\":644:661   */\n      add\n        /* \"#utility.yul\":635:641   */\n      dup6\n        /* \"#utility.yul\":591:662   */\n      tag_27\n      jump\t// in\n    tag_38:\n        /* \"#utility.yul\":672:738   */\n      tag_39\n        /* \"#utility.yul\":734:736   */\n      0x20\n        /* \"#utility.yul\":723:732   */\n      dup4\n        /* \"#utility.yul\":719:737   */\n      add\n        /* \"#utility.yul\":710:716   */\n      dup5\n        /* \"#utility.yul\":672:738   */\n      tag_29\n      jump\t// in\n    tag_39:\n        /* \"#utility.yul\":425:745   */\n      swap4\n      swap3\n      pop\n      pop\n      pop\n      jump\t// out\n\n    auxdata: 0xa2646970667358221220fb14a684d40851947daa790b2e6b6b87fe7665feb09ab579da10dac7aa99be0e64736f6c63430008180033\n}\n",
				"bytecode": {
					"linkReferences": {},
					"object": "608060405234801561000f575f80fd5b506101c68061001d5f395ff3fe608060405234801561000f575f80fd5b506004361061004a575f3560e01c806329adb4891461004e5780635e632bd514610058578063cb24548514610077578063f86c14b114610096575b5f80fd5b6100566100b5565b005b61006061010e565b60405161006e929190610169565b60405180910390f35b61007f61011b565b60405161008d929190610169565b60405180910390f35b61009e610129565b6040516100ac929190610169565b60405180910390f35b5f806100bf61011b565b915091506100cb61011b565b9050809150507f32cc6cca7c3517608ce4220326509fbff25fb443a095e790f5e9a1598c0b69b48282604051610102929190610169565b60405180910390a15050565b5f80600180915091509091565b5f8060026001915091509091565b5f8060019150600190509091565b5f819050919050565b61014981610137565b82525050565b5f8115159050919050565b6101638161014f565b82525050565b5f60408201905061017c5f830185610140565b610189602083018461015a565b939250505056fea2646970667358221220fb14a684d40851947daa790b2e6b6b87fe7665feb09ab579da10dac7aa99be0e64736f6c63430008180033",
					"opcodes": "PUSH1 0x80 PUSH1 0x40 MSTORE CALLVALUE DUP1 ISZERO PUSH2 0xF JUMPI PUSH0 DUP1 REVERT JUMPDEST POP PUSH2 0x1C6 DUP1 PUSH2 0x1D PUSH0 CODECOPY PUSH0 RETURN INVALID PUSH1 0x80 PUSH1 0x40 MSTORE CALLVALUE DUP1 ISZERO PUSH2 0xF JUMPI PUSH0 DUP1 REVERT JUMPDEST POP PUSH1 0x4 CALLDATASIZE LT PUSH2 0x4A JUMPI PUSH0 CALLDATALOAD PUSH1 0xE0 SHR DUP1 PUSH4 0x29ADB489 EQ PUSH2 0x4E JUMPI DUP1 PUSH4 0x5E632BD5 EQ PUSH2 0x58 JUMPI DUP1 PUSH4 0xCB245485 EQ PUSH2 0x77 JUMPI DUP1 PUSH4 0xF86C14B1 EQ PUSH2 0x96 JUMPI JUMPDEST PUSH0 DUP1 REVERT JUMPDEST PUSH2 0x56 PUSH2 0xB5 JUMP JUMPDEST STOP JUMPDEST PUSH2 0x60 PUSH2 0x10E JUMP JUMPDEST PUSH1 0x40 MLOAD PUSH2 0x6E SWAP3 SWAP2 SWAP1 PUSH2 0x169 JUMP JUMPDEST PUSH1 0x40 MLOAD DUP1 SWAP2 SUB SWAP1 RETURN JUMPDEST PUSH2 0x7F PUSH2 0x11B JUMP JUMPDEST PUSH1 0x40 MLOAD PUSH2 0x8D SWAP3 SWAP2 SWAP1 PUSH2 0x169 JUMP JUMPDEST PUSH1 0x40 MLOAD DUP1 SWAP2 SUB SWAP1 RETURN JUMPDEST PUSH2 0x9E PUSH2 0x129 JUMP JUMPDEST PUSH1 0x40 MLOAD PUSH2 0xAC SWAP3 SWAP2 SWAP1 PUSH2 0x169 JUMP JUMPDEST PUSH1 0x40 MLOAD DUP1 SWAP2 SUB SWAP1 RETURN JUMPDEST PUSH0 DUP1 PUSH2 0xBF PUSH2 0x11B JUMP JUMPDEST SWAP2 POP SWAP2 POP PUSH2 0xCB PUSH2 0x11B JUMP JUMPDEST SWAP1 POP DUP1 SWAP2 POP POP PUSH32 0x32CC6CCA7C3517608CE4220326509FBFF25FB443A095E790F5E9A1598C0B69B4 DUP3 DUP3 PUSH1 0x40 MLOAD PUSH2 0x102 SWAP3 SWAP2 SWAP1 PUSH2 0x169 JUMP JUMPDEST PUSH1 0x40 MLOAD DUP1 SWAP2 SUB SWAP1 LOG1 POP POP JUMP JUMPDEST PUSH0 DUP1 PUSH1 0x1 DUP1 SWAP2 POP SWAP2 POP SWAP1 SWAP2 JUMP JUMPDEST PUSH0 DUP1 PUSH1 0x2 PUSH1 0x1 SWAP2 POP SWAP2 POP SWAP1 SWAP2 JUMP JUMPDEST PUSH0 DUP1 PUSH1 0x1 SWAP2 POP PUSH1 0x1 SWAP1 POP SWAP1 SWAP2 JUMP JUMPDEST PUSH0 DUP2 SWAP1 POP SWAP2 SWAP1 POP JUMP JUMPDEST PUSH2 0x149 DUP2 PUSH2 0x137 JUMP JUMPDEST DUP3 MSTORE POP POP JUMP JUMPDEST PUSH0 DUP2 ISZERO ISZERO SWAP1 POP SWAP2 SWAP1 POP JUMP JUMPDEST PUSH2 0x163 DUP2 PUSH2 0x14F JUMP JUMPDEST DUP3 MSTORE POP POP JUMP JUMPDEST PUSH0 PUSH1 0x40 DUP3 ADD SWAP1 POP PUSH2 0x17C PUSH0 DUP4 ADD DUP6 PUSH2 0x140 JUMP JUMPDEST PUSH2 0x189 PUSH1 0x20 DUP4 ADD DUP5 PUSH2 0x15A JUMP JUMPDEST SWAP4 SWAP3 POP POP POP JUMP INVALID LOG2 PUSH5 0x6970667358 0x22 SLT KECCAK256 0xFB EQ 0xA6 DUP5 0xD4 ADDMOD MLOAD SWAP5 PUSH30 0xAA790B2E6B6B87FE7665FEB09AB579DA10DAC7AA99BE0E64736F6C634300 ADDMOD XOR STOP CALLER "
				},
				"gasEstimates": {
					"creation": {
						"codeDepositCost": "90800",
						"executionCost": "139",
						"totalCost": "90939"
					},
					"external": {
						"destructAssigned()": "infinite",
						"multiOutput()": "473",
						"namedOutput()": "451",
						"varAssigned()": "495"
					}
				},
				"methodIdentifiers": {
					"destructAssigned()": "29adb489",
					"multiOutput()": "cb245485",
					"namedOutput()": "5e632bd5",
					"varAssigned()": "f86c14b1"
				}
			},
			"storageLayout": {
				"storage": [],
				"types": null
			},
			"userdoc": {
				"kind": "user",
				"methods": {},
				"version": 1
			}
		}
	}
}